:020000020000FC
:1000000048E04EBF4FEF4DBF4EE64093000242E640
:100010004093010241E64093020248E64093030206
:1000200043E54093040244E64093050245E74093CC
:1000300006024FE6409307024DE64093080248E669
:100040004093090241E640930A024DE440930B02BB
:1000500000900B0210900A0210922A0200922B02CA
:1000600000900902109008021092280200922902C2
:1000700000900702109006021092260200922702BA
:1000800000900502109004021092240200922502B2
:1000900000900302109002021092220200922302AA
:1000A00000900102109000021092200200922102A2
:1000B000E0E1F2E051EE67EB509310026093110221
:1000C00057E36EE942E1415071918191750F861FAE
:1000D000708381834A95C1F700241124222433249C
:1000E000E0E1F2E0C0E2D2E046E3020C131C7081D2
:1000F0008181070E181E63E0662339F0962F001CDD
:1001000017FA111C00F89A95D1F7000000821182AD
:10011000200C311C622D6F7078818981270E381E6A
:10012000662339F0962F221C37FA331C20F89A9553
:10013000D1F700002882398238D33ED34A95A9F6F8
:100140001EE404E430E522E59FEF9AB994B92898BB
:100150004FD002D034D05BC093E30FD049D092E3AC
:100160000CD046D098E209D043D09CE006D091E074
:1001700004D03ED096E001D00895E92FE07FEBB99E
:100180002998289A2DD028982ED0E92FE295E07F43
:10019000EBB9289A25D0289826D00895E92FE07F3A
:1001A000EBB9299A289A1CD028981DD0E92FE295FE
:1001B000E07FEBB9289A14D0289815D00895912F94
:1001C000EDDF1BD0902FEADF18D0932FE7DF15D09B
:1001D000922FE4DF12D0CCE010D0CA95E9F7089551
:1001E0000000000008954AE5FBDF4A95E9F708950D
:1001F000D8E2F9DFDA95E9F708954FEFDFEFE4E1B0
:10020000EA95F1F7DA95D9F74A95C1F70895000014
:10021000A4E1B2E06091100250911102060F151F87
:100220006091120250911302260F351F48E06FE0D3
:1002300062237D918D9102271327662339F0962F33
:10024000001F17FB111F00F99A95D1F70000070F47
:10025000181F6FE060237D918D9120273127662341
:1002600039F0962F221F37FB331F20F99A95D1F7CB
:100270000000270F381F4A95D1F69FEF9AB994B91D
:1002800028984FD002D034D05BC093E30FD049D030
:1002900092E30CD046D098E209D043D09CE006D03F
:1002A00091E004D03ED096E001D00895E92FE07FA0
:1002B000EBB92998289A2DD028982ED0E92FE295CD
:1002C000E07FEBB9289A25D0289826D00895E92F09
:1002D000E07FEBB9299A289A1CD028981DD0E92FE5
:1002E000E295E07FEBB9289A14D0289815D00895AC
:1002F000912FEDDF1BD0902FEADF18D0932FE7DF8F
:1003000015D0922FE4DF12D0CCE010D0CA95E9F7D7
:1003100008950000000008954AE5FBDF4A95E9F7DB
:100320000895D8E2F9DFDA95E9F708954FEFDFEFA6
:10033000E4E1EA95F1F7DA95D9F74A95C1F708951E
:100340000000A4E3B2E048E06FE060237E918E916C
:10035000281B370B662339F0962F379520FB2795FE
:1003600037F99A95D1F70000202731276FE06223F3
:100370007E918E91081B170B662339F0962F1795E7
:1003800000FB079517F99A95D1F70000022713276C
:100390004A95D1F66091110250911002051B160B7F
:1003A0006091130250911202251B360B9FEF9AB9F0
:1003B00094B928984FD002D034D05BC093E30FD0CB
:1003C00049D092E30CD046D098E209D043D09CE0CB
:1003D00006D091E004D03ED096E001D00895E92FF8
:1003E000E07FEBB92998289A2DD028982ED0E92FB4
:1003F000E295E07FEBB9289A25D0289826D0089579
:10040000E92FE07FEBB9299A289A1CD028981DD0B3
:10041000E92FE295E07FEBB9289A14D0289815D0FF
:100420000895912FEDDF1BD0902FEADF18D0932F86
:10043000E7DF15D0922FE4DF12D0CCE010D0CA95C0
:10044000E9F708950000000008954AE5FBDF4A95AA
:10045000E9F70895D8E2F9DFDA95E9F708954FEF63
:10046000DFEFE4E1EA95F1F7DA95D9F74A95C1F7BC
:10047000089500001DE401E433E523E59FEF9AB9F8
:1004800094B928984FD002D034D05BC093E30FD0FA
:1004900049D092E30CD046D098E209D043D09CE0FA
:1004A00006D091E004D03ED096E001D00895E92F27
:1004B000E07FEBB92998289A2DD028982ED0E92FE3
:1004C000E295E07FEBB9289A25D0289826D00895A8
:1004D000E92FE07FEBB9299A289A1CD028981DD0E3
:1004E000E92FE295E07FEBB9289A14D0289815D02F
:1004F0000895912FEDDF1BD0902FEADF18D0932FB6
:10050000E7DF15D0922FE4DF12D0CCE010D0CA95EF
:10051000E9F708950000000008954AE5FBDF4A95D9
:10052000E9F70895D8E2F9DFDA95E9F708954FEF92
:10053000DFEFE4E1EA95F1F7DA95D9F74A95C1F7EB
:1005400008950000A4E1B2E0609110025091110200
:10055000060F151F6091120250911302260F351FCE
:1005600048E06FE062237D918D9102271327662377
:1005700039F0962F001F17FB111F00F99A95D1F73C
:100580000000070F181F6FE060237D918D912027D9
:100590003127662339F0962F221F37FB331F20F9AE
:1005A0009A95D1F70000270F381F4A95D1F69FEF93
:1005B0009AB994B928984FD002D034D05BC093E355
:1005C0000FD049D092E30CD046D098E209D043D066
:1005D0009CE006D091E004D03ED096E001D0089592
:1005E000E92FE07FEBB92998289A2DD028982ED0B2
:1005F000E92FE295E07FEBB9289A25D0289826D0FC
:100600000895E92FE07FEBB9299A289A1CD0289801
:100610001DD0E92FE295E07FEBB9289A14D02898F5
:1006200015D00895912FEDDF1BD0902FEADF18D061
:10063000932FE7DF15D0922FE4DF12D0CCE010D05B
:10064000CA95E9F708950000000008954AE5FBDF28
:100650004A95E9F70895D8E2F9DFDA95E9F70895C0
:100660004FEFDFEFE4E1EA95F1F7DA95D9F74A9534
:10067000C1F708950000A4E3B2E048E06FE0602312
:100680007E918E91281B370B662339F0962F379574
:1006900020FB279537F99A95D1F7000020273127BD
:1006A0006FE062237E918E91081B170B662339F051
:1006B000962F179500FB079517F99A95D1F700002B
:1006C000022713274A95D1F660911102509110022A
:1006D000051B160B6091130250911202251B360B5D
:1006E0009FEF9AB994B928984FD002D034D05BC00C
:1006F00093E30FD049D092E30CD046D098E209D0D2
:1007000043D09CE006D091E004D03ED096E001D0EA
:100710000895E92FE07FEBB92998289A2DD02898E1
:100720002ED0E92FE295E07FEBB9289A25D02898C2
:1007300026D00895E92FE07FEBB9299A289A1CD09A
:1007400028981DD0E92FE295E07FEBB9289A14D0C4
:10075000289815D00895912FEDDF1BD0902FEADF58
:1007600018D0932FE7DF15D0922FE4DF12D0CCE022
:1007700010D0CA95E9F708950000000008954AE5F1
:10078000FBDF4A95E9F70895D8E2F9DFDA95E9F752
:1007900008954FEFDFEFE4E1EA95F1F7DA95D9F745
:1007A0004A95C1F708950000FFCFE395E39554E320
:1007B000E5130895E0E10895C395C3955CE0C51382
:0607C0000895C0E2089557
:00000001FF
