:020000020000FC
:100000000DE40093000201E60093010208E600936C
:1000100002020DE6009303020FE60093040205E7D7
:100020000093050204E60093060203E5009307022D
:1000300008E60093080201E60093090202E6009335
:100040000A020EE600930B0208E40093800201E42A
:100050000093810204E4009382020DE40093830282
:1000600000918002109181022091820230918302DE
:100070009FEF9AB994B928984FD002D034D05BC082
:1000800093E30FD049D092E30CD046D098E209D048
:1000900043D09CE006D091E004D03ED096E001D061
:1000A0000895E92FE07FEBB92998289A2DD0289858
:1000B0002ED0E92FE295E07FEBB9289A25D0289839
:1000C00026D00895E92FE07FEBB9299A289A1CD011
:1000D00028981DD0E92FE295E07FEBB9289A14D03B
:1000E000289815D00895912FEDDF1BD0902FEADFCF
:1000F00018D0932FE7DF15D0922FE4DF12D0CCE099
:1001000010D0CA95E9F708950000000008954AE567
:10011000FBDF4A95E9F70895D8E2F9DFDA95E9F7C8
:1001200008954FEFDFEFE4E1EA95F1F7DA95D9F7BB
:100130004A95C1F708950000E0E1F2E001EE17EB07
:100140000083118327E33EE941E101911191020F00
:10015000131F008311834A95C1F7C0E0D2E0E0E1AC
:10016000F2E0002411242224332496E3020C131C11
:1001700040805180040C151C63E0889407FC0894AF
:10018000111C001C6A95C9F700821182200C311CD9
:10019000622D6F7048805980240C351C889427FC90
:1001A0000894331C221C6A95C9F728823982E3958A
:1001B000E39544E3E41301C0E0E1C395C3954CE04B
:1001C000C41301C0CC279A9589F6C0E8D2E0A0E01C
:1001D000B4E091E0E0E1F2E00991199129913991BF
:1001E00061917191060F171F61917191260F371F51
:1001F00088E002271327422F4F70889407FD089448
:10020000111F001F4A95C9F761917191060F171FC1
:1002100020273127402F4F70889427FD0894331FE3
:10022000221F4A95C9F761917191260F371F8A9550
:1002300001F70D931D932D933D939A9559F69FEFDA
:100240009AB994B928984FD002D034D05BC093E3C8
:100250000FD049D092E30CD046D098E209D043D0D9
:100260009CE006D091E004D03ED096E001D0089505
:10027000E92FE07FEBB92998289A2DD028982ED025
:10028000E92FE295E07FEBB9289A25D0289826D06F
:100290000895E92FE07FEBB9299A289A1CD0289875
:1002A0001DD0E92FE295E07FEBB9289A14D0289869
:1002B00015D00895912FEDDF1BD0902FEADF18D0D5
:1002C000932FE7DF15D0922FE4DF12D0CCE010D0CF
:1002D000CA95E9F708950000000008954AE5FBDF9C
:1002E0004A95E9F70895D8E2F9DFDA95E9F7089534
:1002F0004FEFDFEFE4E1EA95F1F7DA95D9F74A95A8
:10030000C1F708950000A0E0B4E0C0E0D5E091E0BE
:10031000E4E3F2E088E00D911D912D913D91729101
:100320006291261B370B402F4F70889430FD089444
:10033000279537954A95C9F7202731277291629101
:10034000061B170B422F4F70889410FD08940795D9
:1003500017954A95C9F7022713278A9501F77291D5
:100360006291261B370B72916291061B170B099342
:100370001993299339939A9559F69FEF9AB994B99D
:1003800028984FD002D034D05BC093E30FD049D02F
:1003900092E30CD046D098E209D043D09CE006D03E
:1003A00091E004D03ED096E001D00895E92FE07F9F
:1003B000EBB92998289A2DD028982ED0E92FE295CC
:1003C000E07FEBB9289A25D0289826D00895E92F08
:1003D000E07FEBB9299A289A1CD028981DD0E92FE4
:1003E000E295E07FEBB9289A14D0289815D00895AB
:1003F000912FEDDF1BD0902FEADF18D0932FE7DF8E
:1004000015D0922FE4DF12D0CCE010D0CA95E9F7D6
:1004100008950000000008954AE5FBDF4A95E9F7DA
:100420000895D8E2F9DFDA95E9F708954FEFDFEFA5
:10043000E4E1EA95F1F7DA95D9F74A95C1F708951D
:040440000000FFCFEA
:00000001FF
